{
  "contractName": "FishmealTraceability",
  "abi": [
    {
      "anonymous": false,
      "inputs": [
        {
          "indexed": false,
          "internalType": "uint256",
          "name": "id",
          "type": "uint256"
        },
        {
          "indexed": false,
          "internalType": "string",
          "name": "enterprise",
          "type": "string"
        },
        {
          "indexed": false,
          "internalType": "uint256",
          "name": "kilograms",
          "type": "uint256"
        },
        {
          "indexed": false,
          "internalType": "string",
          "name": "fishingArea",
          "type": "string"
        },
        {
          "indexed": false,
          "internalType": "bool",
          "name": "exits",
          "type": "bool"
        },
        {
          "indexed": false,
          "internalType": "uint256",
          "name": "createdAt",
          "type": "uint256"
        }
      ],
      "name": "AnchovyBatchCreated",
      "type": "event"
    },
    {
      "anonymous": false,
      "inputs": [
        {
          "indexed": false,
          "internalType": "uint256",
          "name": "id",
          "type": "uint256"
        },
        {
          "indexed": false,
          "internalType": "uint256",
          "name": "kilograms",
          "type": "uint256"
        },
        {
          "indexed": false,
          "internalType": "string",
          "name": "processor_name",
          "type": "string"
        },
        {
          "indexed": false,
          "internalType": "uint256",
          "name": "id_anchovy_batch",
          "type": "uint256"
        },
        {
          "indexed": false,
          "internalType": "bool",
          "name": "exits",
          "type": "bool"
        },
        {
          "indexed": false,
          "internalType": "uint256",
          "name": "craetedAt",
          "type": "uint256"
        }
      ],
      "name": "FishmealBatchCreated",
      "type": "event"
    },
    {
      "anonymous": false,
      "inputs": [
        {
          "indexed": false,
          "internalType": "uint256",
          "name": "id",
          "type": "uint256"
        },
        {
          "indexed": false,
          "internalType": "uint256",
          "name": "fishmeal_batch_id",
          "type": "uint256"
        },
        {
          "indexed": false,
          "internalType": "uint256",
          "name": "init_packages_id",
          "type": "uint256"
        },
        {
          "indexed": false,
          "internalType": "uint256",
          "name": "packagesCount",
          "type": "uint256"
        },
        {
          "indexed": false,
          "internalType": "uint256",
          "name": "final_packages_id",
          "type": "uint256"
        }
      ],
      "name": "FishmealPackagesCreated",
      "type": "event"
    },
    {
      "inputs": [],
      "name": "SCALE_FACTOR",
      "outputs": [
        {
          "internalType": "uint256",
          "name": "",
          "type": "uint256"
        }
      ],
      "stateMutability": "view",
      "type": "function",
      "constant": true
    },
    {
      "inputs": [],
      "name": "anchovy_batch_counter",
      "outputs": [
        {
          "internalType": "uint256",
          "name": "",
          "type": "uint256"
        }
      ],
      "stateMutability": "view",
      "type": "function",
      "constant": true
    },
    {
      "inputs": [
        {
          "internalType": "uint256",
          "name": "",
          "type": "uint256"
        }
      ],
      "name": "anchovy_batches",
      "outputs": [
        {
          "internalType": "uint256",
          "name": "id",
          "type": "uint256"
        },
        {
          "internalType": "string",
          "name": "enterprise",
          "type": "string"
        },
        {
          "internalType": "uint256",
          "name": "kilograms",
          "type": "uint256"
        },
        {
          "internalType": "string",
          "name": "fishingArea",
          "type": "string"
        },
        {
          "internalType": "bool",
          "name": "exists",
          "type": "bool"
        },
        {
          "internalType": "uint256",
          "name": "createdAt",
          "type": "uint256"
        }
      ],
      "stateMutability": "view",
      "type": "function",
      "constant": true
    },
    {
      "inputs": [],
      "name": "fishmeal_batch_counter",
      "outputs": [
        {
          "internalType": "uint256",
          "name": "",
          "type": "uint256"
        }
      ],
      "stateMutability": "view",
      "type": "function",
      "constant": true
    },
    {
      "inputs": [
        {
          "internalType": "uint256",
          "name": "",
          "type": "uint256"
        }
      ],
      "name": "fishmeal_batches",
      "outputs": [
        {
          "internalType": "uint256",
          "name": "id",
          "type": "uint256"
        },
        {
          "internalType": "uint256",
          "name": "kilograms",
          "type": "uint256"
        },
        {
          "internalType": "string",
          "name": "processor_name",
          "type": "string"
        },
        {
          "internalType": "uint256",
          "name": "id_anchovy_batch",
          "type": "uint256"
        },
        {
          "internalType": "bool",
          "name": "exits",
          "type": "bool"
        },
        {
          "internalType": "uint256",
          "name": "craetedAt",
          "type": "uint256"
        }
      ],
      "stateMutability": "view",
      "type": "function",
      "constant": true
    },
    {
      "inputs": [],
      "name": "fishmeal_package_batch_counter",
      "outputs": [
        {
          "internalType": "uint256",
          "name": "",
          "type": "uint256"
        }
      ],
      "stateMutability": "view",
      "type": "function",
      "constant": true
    },
    {
      "inputs": [
        {
          "internalType": "uint256",
          "name": "",
          "type": "uint256"
        }
      ],
      "name": "fishmeal_packages_batches",
      "outputs": [
        {
          "internalType": "uint256",
          "name": "id",
          "type": "uint256"
        },
        {
          "internalType": "uint256",
          "name": "fishmeal_batch_id",
          "type": "uint256"
        },
        {
          "internalType": "uint256",
          "name": "init_packages_id",
          "type": "uint256"
        },
        {
          "internalType": "uint256",
          "name": "packagesCount",
          "type": "uint256"
        },
        {
          "internalType": "uint256",
          "name": "final_packages_id",
          "type": "uint256"
        }
      ],
      "stateMutability": "view",
      "type": "function",
      "constant": true
    },
    {
      "inputs": [
        {
          "internalType": "string",
          "name": "_enterprise",
          "type": "string"
        },
        {
          "internalType": "uint256",
          "name": "_kilograms",
          "type": "uint256"
        },
        {
          "internalType": "string",
          "name": "_fishingArea",
          "type": "string"
        }
      ],
      "name": "createAnchovyBatch",
      "outputs": [],
      "stateMutability": "nonpayable",
      "type": "function"
    },
    {
      "inputs": [
        {
          "internalType": "uint256",
          "name": "_kilograms",
          "type": "uint256"
        },
        {
          "internalType": "string",
          "name": "_processor_name",
          "type": "string"
        },
        {
          "internalType": "uint256",
          "name": "_id_anchovy_batch",
          "type": "uint256"
        }
      ],
      "name": "createFishmealBatch",
      "outputs": [],
      "stateMutability": "nonpayable",
      "type": "function"
    },
    {
      "inputs": [
        {
          "internalType": "uint256",
          "name": "_fishmeal_batch_id",
          "type": "uint256"
        },
        {
          "internalType": "uint256",
          "name": "_packages_count",
          "type": "uint256"
        }
      ],
      "name": "createFishmealPackages",
      "outputs": [],
      "stateMutability": "nonpayable",
      "type": "function"
    }
  ],
  "bytecode": "0x6080604052600080556000600155600060025534801561001e57600080fd5b50610d148061002e6000396000f3fe608060405234801561001057600080fd5b506004361061009e5760003560e01c806384ef04f51161006657806384ef04f51461016257806390930a4c1461019757806393dc76d8146101b5578063ce4b5bbe146101d3578063cf77fe69146101f15761009e565b80631ab90d10146100a35780632b2c747d146100d757806361143640146100f357806365e0a97e1461010f5780638008280a14610144575b600080fd5b6100bd60048036038101906100b89190610827565b61020d565b6040516100ce959493929190610a4c565b60405180910390f35b6100f160048036038101906100ec9190610854565b610243565b005b61010d6004803603810190610108919061079c565b61030f565b005b61012960048036038101906101249190610827565b6103ec565b60405161013b96959493929190610975565b60405180910390f35b61014c610545565b604051610159919061095a565b60405180910390f35b61017c60048036038101906101779190610827565b61054b565b60405161018e969594939291906109e4565b60405180910390f35b61019f61061c565b6040516101ac919061095a565b60405180910390f35b6101bd610622565b6040516101ca919061095a565b60405180910390f35b6101db610628565b6040516101e8919061095a565b60405180910390f35b61020b600480360381019061020691906108c3565b61062d565b005b60056020528060005260406000206000915090508060000154908060010154908060020154908060030154908060040154905085565b6001600081548092919061025690610bcc565b91905055506040518060c00160405280600154815260200184815260200183815260200182815260200160011515815260200142815250600460006001548152602001908152602001600020600082015181600001556020820151816001015560408201518160020190805190602001906102d2929190610674565b506060820151816003015560808201518160040160006101000a81548160ff02191690831515021790555060a08201518160050155905050505050565b60008081548092919061032190610bcc565b91905055506040518060c001604052806000548152602001848152602001838152602001828152602001600115158152602001428152506003600080548152602001908152602001600020600082015181600001556020820151816001019080519060200190610392929190610674565b506040820151816002015560608201518160030190805190602001906103b9929190610674565b5060808201518160040160006101000a81548160ff02191690831515021790555060a08201518160050155905050505050565b600360205280600052604060002060009150905080600001549080600101805461041590610b69565b80601f016020809104026020016040519081016040528092919081815260200182805461044190610b69565b801561048e5780601f106104635761010080835404028352916020019161048e565b820191906000526020600020905b81548152906001019060200180831161047157829003601f168201915b5050505050908060020154908060030180546104a990610b69565b80601f01602080910402602001604051908101604052809291908181526020018280546104d590610b69565b80156105225780601f106104f757610100808354040283529160200191610522565b820191906000526020600020905b81548152906001019060200180831161050557829003601f168201915b5050505050908060040160009054906101000a900460ff16908060050154905086565b60005481565b600460205280600052604060002060009150905080600001549080600101549080600201805461057a90610b69565b80601f01602080910402602001604051908101604052809291908181526020018280546105a690610b69565b80156105f35780601f106105c8576101008083540402835291602001916105f3565b820191906000526020600020905b8154815290600101906020018083116105d657829003601f168201915b5050505050908060030154908060040160009054906101000a900460ff16908060050154905086565b60015481565b60025481565b606481565b6002600081548092919061064090610bcc565b91905055506040518060a0016040528060025481526020018381526020016001815260200182815260200182815250505050565b82805461068090610b69565b90600052602060002090601f0160209004810192826106a257600085556106e9565b82601f106106bb57805160ff19168380011785556106e9565b828001600101855582156106e9579182015b828111156106e85782518255916020019190600101906106cd565b5b5090506106f691906106fa565b5090565b5b808211156107135760008160009055506001016106fb565b5090565b600061072a61072584610ac4565b610a9f565b90508281526020810184848401111561074657610745610ca7565b5b610751848285610b27565b509392505050565b600082601f83011261076e5761076d610ca2565b5b813561077e848260208601610717565b91505092915050565b60008135905061079681610cc7565b92915050565b6000806000606084860312156107b5576107b4610cb1565b5b600084013567ffffffffffffffff8111156107d3576107d2610cac565b5b6107df86828701610759565b93505060206107f086828701610787565b925050604084013567ffffffffffffffff81111561081157610810610cac565b5b61081d86828701610759565b9150509250925092565b60006020828403121561083d5761083c610cb1565b5b600061084b84828501610787565b91505092915050565b60008060006060848603121561086d5761086c610cb1565b5b600061087b86828701610787565b935050602084013567ffffffffffffffff81111561089c5761089b610cac565b5b6108a886828701610759565b92505060406108b986828701610787565b9150509250925092565b600080604083850312156108da576108d9610cb1565b5b60006108e885828601610787565b92505060206108f985828601610787565b9150509250929050565b61090c81610b11565b82525050565b600061091d82610af5565b6109278185610b00565b9350610937818560208601610b36565b61094081610cb6565b840191505092915050565b61095481610b1d565b82525050565b600060208201905061096f600083018461094b565b92915050565b600060c08201905061098a600083018961094b565b818103602083015261099c8188610912565b90506109ab604083018761094b565b81810360608301526109bd8186610912565b90506109cc6080830185610903565b6109d960a083018461094b565b979650505050505050565b600060c0820190506109f9600083018961094b565b610a06602083018861094b565b8181036040830152610a188187610912565b9050610a27606083018661094b565b610a346080830185610903565b610a4160a083018461094b565b979650505050505050565b600060a082019050610a61600083018861094b565b610a6e602083018761094b565b610a7b604083018661094b565b610a88606083018561094b565b610a95608083018461094b565b9695505050505050565b6000610aa9610aba565b9050610ab58282610b9b565b919050565b6000604051905090565b600067ffffffffffffffff821115610adf57610ade610c73565b5b610ae882610cb6565b9050602081019050919050565b600081519050919050565b600082825260208201905092915050565b60008115159050919050565b6000819050919050565b82818337600083830152505050565b60005b83811015610b54578082015181840152602081019050610b39565b83811115610b63576000848401525b50505050565b60006002820490506001821680610b8157607f821691505b60208210811415610b9557610b94610c44565b5b50919050565b610ba482610cb6565b810181811067ffffffffffffffff82111715610bc357610bc2610c73565b5b80604052505050565b6000610bd782610b1d565b91507fffffffffffffffffffffffffffffffffffffffffffffffffffffffffffffffff821415610c0a57610c09610c15565b5b600182019050919050565b7f4e487b7100000000000000000000000000000000000000000000000000000000600052601160045260246000fd5b7f4e487b7100000000000000000000000000000000000000000000000000000000600052602260045260246000fd5b7f4e487b7100000000000000000000000000000000000000000000000000000000600052604160045260246000fd5b600080fd5b600080fd5b600080fd5b600080fd5b6000601f19601f8301169050919050565b610cd081610b1d565b8114610cdb57600080fd5b5056fea26469706673582212203ba2fb0325e65b9158b5b68abf25c0d5e83b1a4f88cc8412b75d89061f7e15ef64736f6c63430008060033",
  "immutableReferences": {},
  "source": "/// SPDX-License-Identifier: MIT\r\npragma solidity ^0.8.6;\r\n\r\ncontract FishmealTraceability {\r\n    uint256 public constant SCALE_FACTOR = 100;\r\n    uint256 public anchovy_batch_counter = 0;\r\n    uint256 public fishmeal_batch_counter = 0;\r\n    uint256 public fishmeal_package_batch_counter = 0;\r\n\r\n    struct AnchovyBatch {\r\n        uint256 id;\r\n        string enterprise;\r\n        uint256 kilograms;\r\n        string fishingArea;\r\n        bool exists;\r\n        uint256 createdAt;\r\n    }\r\n    \r\n    struct FishmealBatch {\r\n        uint256 id;\r\n        uint256 kilograms;\r\n        string processor_name ;\r\n        uint256 id_anchovy_batch;\r\n        bool exits;\r\n        uint256 craetedAt;\r\n    }\r\n\r\n    struct FishmealPackages {\r\n        uint256 id;\r\n        uint256 fishmeal_batch_id;\r\n        uint256 init_packages_id;\r\n        uint256 packagesCount;\r\n        uint256 final_packages_id;\r\n    }\r\n\r\n    event AnchovyBatchCreated(\r\n        uint256 id,\r\n        string enterprise,\r\n        uint256 kilograms,\r\n        string fishingArea,\r\n        bool exits,\r\n        uint256 createdAt\r\n    );\r\n\r\n    event FishmealBatchCreated(\r\n        uint256 id,\r\n        uint256 kilograms,\r\n        string processor_name,\r\n        uint256 id_anchovy_batch,\r\n        bool exits,\r\n        uint256 craetedAt\r\n    );\r\n\r\n    event FishmealPackagesCreated(\r\n        uint256 id,\r\n        uint256 fishmeal_batch_id,\r\n        uint256 init_packages_id,\r\n        uint256 packagesCount,\r\n        uint256 final_packages_id\r\n    );\r\n\r\n    mapping(uint256 => AnchovyBatch) public anchovy_batches;\r\n    mapping(uint256 => FishmealBatch) public fishmeal_batches;\r\n    mapping(uint256 => FishmealPackages) public fishmeal_packages_batches;\r\n\r\n    function createAnchovyBatch(string memory _enterprise, uint256 _kilograms, string memory _fishingArea) public {\r\n        anchovy_batch_counter++;\r\n        anchovy_batches[anchovy_batch_counter] = AnchovyBatch(\r\n            anchovy_batch_counter,\r\n            _enterprise,\r\n            _kilograms,\r\n            _fishingArea,\r\n            true,\r\n            block.timestamp\r\n        );   \r\n    }\r\n\r\n    function createFishmealBatch(uint256 _kilograms, string memory _processor_name, uint256 _id_anchovy_batch) public {\r\n        fishmeal_batch_counter++;\r\n        fishmeal_batches[fishmeal_batch_counter] = FishmealBatch(\r\n            fishmeal_batch_counter,\r\n            _kilograms,\r\n            _processor_name,\r\n            _id_anchovy_batch,\r\n            true,\r\n            block.timestamp\r\n        );\r\n    }\r\n        uint256 id;\r\n        uint256 fishmeal_batch_id;\r\n        uint256 init_packages_id;\r\n        uint256 packagesCount;\r\n        uint256 final_packages_id;\r\n\r\n    function createFishmealPackages(uint256 _fishmeal_batch_id, uint256 _packages_count) public {\r\n        fishmeal_package_batch_counter++;\r\n        FishmealPackages(\r\n            fishmeal_package_batch_counter,\r\n            _fishmeal_batch_id,\r\n            1,\r\n            _packages_count,\r\n            _packages_count\r\n        );\r\n    }\r\n\r\n   \r\n}",
  "sourcePath": "C:\\Users\\USUARIO\\Documents\\Github\\Solidity-System\\contracts\\FishmealTraceability.sol",
  "compiler": {
    "name": "solc",
    "version": "0.8.6+commit.11564f7e.Emscripten.clang"
  },
  "schemaVersion": "3.4.16",
  "updatedAt": "2024-07-05T21:19:05.263Z",
  "networkType": "ethereum",
  "devdoc": {
    "kind": "dev",
    "methods": {},
    "version": 1
  },
  "userdoc": {
    "kind": "user",
    "methods": {},
    "version": 1
  }
}